{
  "contractName": "Mayor",
  "abi": [
    {
      "inputs": [
        {
          "internalType": "address payable",
          "name": "_candidate",
          "type": "address"
        },
        {
          "internalType": "address payable",
          "name": "_escrow",
          "type": "address"
        },
        {
          "internalType": "uint32",
          "name": "_quorum",
          "type": "uint32"
        }
      ],
      "stateMutability": "nonpayable",
      "type": "constructor"
    },
    {
      "anonymous": false,
      "inputs": [
        {
          "indexed": false,
          "internalType": "address",
          "name": "_voter",
          "type": "address"
        }
      ],
      "name": "EnvelopeCast",
      "type": "event"
    },
    {
      "anonymous": false,
      "inputs": [
        {
          "indexed": false,
          "internalType": "address",
          "name": "_voter",
          "type": "address"
        },
        {
          "indexed": false,
          "internalType": "uint256",
          "name": "_soul",
          "type": "uint256"
        },
        {
          "indexed": false,
          "internalType": "bool",
          "name": "_doblon",
          "type": "bool"
        }
      ],
      "name": "EnvelopeOpen",
      "type": "event"
    },
    {
      "anonymous": false,
      "inputs": [
        {
          "indexed": false,
          "internalType": "address",
          "name": "_candidate",
          "type": "address"
        }
      ],
      "name": "NewMayor",
      "type": "event"
    },
    {
      "anonymous": false,
      "inputs": [
        {
          "indexed": false,
          "internalType": "address",
          "name": "_escrow",
          "type": "address"
        }
      ],
      "name": "Sayonara",
      "type": "event"
    },
    {
      "inputs": [],
      "name": "candidate",
      "outputs": [
        {
          "internalType": "address payable",
          "name": "",
          "type": "address"
        }
      ],
      "stateMutability": "view",
      "type": "function"
    },
    {
      "inputs": [],
      "name": "escrow",
      "outputs": [
        {
          "internalType": "address payable",
          "name": "",
          "type": "address"
        }
      ],
      "stateMutability": "view",
      "type": "function"
    },
    {
      "inputs": [],
      "name": "naySoul",
      "outputs": [
        {
          "internalType": "uint256",
          "name": "",
          "type": "uint256"
        }
      ],
      "stateMutability": "view",
      "type": "function"
    },
    {
      "inputs": [],
      "name": "yaySoul",
      "outputs": [
        {
          "internalType": "uint256",
          "name": "",
          "type": "uint256"
        }
      ],
      "stateMutability": "view",
      "type": "function"
    },
    {
      "inputs": [
        {
          "internalType": "bytes32",
          "name": "_envelope",
          "type": "bytes32"
        }
      ],
      "name": "cast_envelope",
      "outputs": [],
      "stateMutability": "nonpayable",
      "type": "function"
    },
    {
      "inputs": [
        {
          "internalType": "uint256",
          "name": "_sigil",
          "type": "uint256"
        },
        {
          "internalType": "bool",
          "name": "_doblon",
          "type": "bool"
        }
      ],
      "name": "open_envelope",
      "outputs": [],
      "stateMutability": "payable",
      "type": "function"
    },
    {
      "inputs": [],
      "name": "mayor_or_sayonara",
      "outputs": [],
      "stateMutability": "nonpayable",
      "type": "function"
    },
    {
      "inputs": [
        {
          "internalType": "uint256",
          "name": "_sigil",
          "type": "uint256"
        },
        {
          "internalType": "bool",
          "name": "_doblon",
          "type": "bool"
        },
        {
          "internalType": "uint256",
          "name": "_soul",
          "type": "uint256"
        }
      ],
      "name": "compute_envelope",
      "outputs": [
        {
          "internalType": "bytes32",
          "name": "",
          "type": "bytes32"
        }
      ],
      "stateMutability": "pure",
      "type": "function"
    }
  ],
  "bytecode": "0x60806040523480156200001157600080fd5b5060405162001a8b38038062001a8b833981810160405281019062000037919062000198565b826000806101000a81548173ffffffffffffffffffffffffffffffffffffffff021916908373ffffffffffffffffffffffffffffffffffffffff16021790555081600160006101000a81548173ffffffffffffffffffffffffffffffffffffffff021916908373ffffffffffffffffffffffffffffffffffffffff16021790555060405180606001604052808263ffffffff168152602001600063ffffffff168152602001600063ffffffff16815250600460008201518160000160006101000a81548163ffffffff021916908363ffffffff16021790555060208201518160000160046101000a81548163ffffffff021916908363ffffffff16021790555060408201518160000160086101000a81548163ffffffff021916908363ffffffff16021790555090505050505062000266565b6000815190506200017b8162000232565b92915050565b60008151905062000192816200024c565b92915050565b600080600060608486031215620001ae57600080fd5b6000620001be868287016200016a565b9350506020620001d1868287016200016a565b9250506040620001e48682870162000181565b9150509250925092565b6000620001fb8262000202565b9050919050565b600073ffffffffffffffffffffffffffffffffffffffff82169050919050565b600063ffffffff82169050919050565b6200023d81620001ee565b81146200024957600080fd5b50565b620002578162000222565b81146200026357600080fd5b50565b61181580620002766000396000f3fe60806040526004361061007b5760003560e01c80636c8381f81161004e5780636c8381f81461012857806378194cc6146101535780637a0550d01461017e578063e2fdcc171461019a5761007b565b806305698612146100805780631acecb50146100975780631c9a34e3146100c25780634979a402146100eb575b600080fd5b34801561008c57600080fd5b506100956101c5565b005b3480156100a357600080fd5b506100ac6109b2565b6040516100b991906113b8565b60405180910390f35b3480156100ce57600080fd5b506100e960048036038101906100e49190611075565b6109b8565b005b3480156100f757600080fd5b50610112600480360381019061010d91906110da565b610b3d565b60405161011f91906112dd565b60405180910390f35b34801561013457600080fd5b5061013d610b73565b60405161014a919061128b565b60405180910390f35b34801561015f57600080fd5b50610168610b97565b60405161017591906113b8565b60405180910390f35b6101986004803603810190610193919061109e565b610b9d565b005b3480156101a657600080fd5b506101af610ff4565b6040516101bc919061128b565b60405180910390f35b600460000160009054906101000a900463ffffffff1663ffffffff16600460000160089054906101000a900463ffffffff1663ffffffff161461023d576040517f08c379a000000000000000000000000000000000000000000000000000000000815260040161023490611398565b60405180910390fd5b60055460065411156105fb577f871e83b983a039f59e0f4c08b833ff72e17dcba70607314804f13146995a8f7660008054906101000a900473ffffffffffffffffffffffffffffffffffffffff166040516102989190611270565b60405180910390a1600060088054905090506000805b8281101561058c5760076000600883815481106102f4577f4e487b7100000000000000000000000000000000000000000000000000000000600052603260045260246000fd5b9060005260206000200160009054906101000a900473ffffffffffffffffffffffffffffffffffffffff1673ffffffffffffffffffffffffffffffffffffffff1673ffffffffffffffffffffffffffffffffffffffff16815260200190815260200160002060010160009054906101000a900460ff166104c457600881815481106103a8577f4e487b7100000000000000000000000000000000000000000000000000000000600052603260045260246000fd5b9060005260206000200160009054906101000a900473ffffffffffffffffffffffffffffffffffffffff1673ffffffffffffffffffffffffffffffffffffffff166108fc600760006008858154811061042a577f4e487b7100000000000000000000000000000000000000000000000000000000600052603260045260246000fd5b9060005260206000200160009054906101000a900473ffffffffffffffffffffffffffffffffffffffff1673ffffffffffffffffffffffffffffffffffffffff1673ffffffffffffffffffffffffffffffffffffffff168152602001908152602001600020600001549081150290604051600060405180830381858888f193505050501580156104be573d6000803e3d6000fd5b50610579565b6007600060088381548110610502577f4e487b7100000000000000000000000000000000000000000000000000000000600052603260045260246000fd5b9060005260206000200160009054906101000a900473ffffffffffffffffffffffffffffffffffffffff1673ffffffffffffffffffffffffffffffffffffffff1673ffffffffffffffffffffffffffffffffffffffff1681526020019081526020016000206000015482610576919061141b565b91505b80806105849061151b565b9150506102ae565b5060008054906101000a900473ffffffffffffffffffffffffffffffffffffffff1673ffffffffffffffffffffffffffffffffffffffff166108fc829081150290604051600060405180830381858888f193505050501580156105f3573d6000803e3d6000fd5b5050506109b0565b7fa1134e3746de254ae26240f518fc8ba38299f6dcf7399d77c8a117857b1c46c5600160009054906101000a900473ffffffffffffffffffffffffffffffffffffffff1660405161064c9190611270565b60405180910390a1600060088054905090506000805b828110156109415760076000600883815481106106a8577f4e487b7100000000000000000000000000000000000000000000000000000000600052603260045260246000fd5b9060005260206000200160009054906101000a900473ffffffffffffffffffffffffffffffffffffffff1673ffffffffffffffffffffffffffffffffffffffff1673ffffffffffffffffffffffffffffffffffffffff16815260200190815260200160002060010160009054906101000a900460ff1615610879576008818154811061075d577f4e487b7100000000000000000000000000000000000000000000000000000000600052603260045260246000fd5b9060005260206000200160009054906101000a900473ffffffffffffffffffffffffffffffffffffffff1673ffffffffffffffffffffffffffffffffffffffff166108fc60076000600885815481106107df577f4e487b7100000000000000000000000000000000000000000000000000000000600052603260045260246000fd5b9060005260206000200160009054906101000a900473ffffffffffffffffffffffffffffffffffffffff1673ffffffffffffffffffffffffffffffffffffffff1673ffffffffffffffffffffffffffffffffffffffff168152602001908152602001600020600001549081150290604051600060405180830381858888f19350505050158015610873573d6000803e3d6000fd5b5061092e565b60076000600883815481106108b7577f4e487b7100000000000000000000000000000000000000000000000000000000600052603260045260246000fd5b9060005260206000200160009054906101000a900473ffffffffffffffffffffffffffffffffffffffff1673ffffffffffffffffffffffffffffffffffffffff1673ffffffffffffffffffffffffffffffffffffffff168152602001908152602001600020600001548261092b919061141b565b91505b80806109399061151b565b915050610662565b50600160009054906101000a900473ffffffffffffffffffffffffffffffffffffffff1673ffffffffffffffffffffffffffffffffffffffff166108fc6006549081150290604051600060405180830381858888f193505050501580156109ac573d6000803e3d6000fd5b5050505b565b60065481565b600460000160009054906101000a900463ffffffff1663ffffffff16600460000160049054906101000a900463ffffffff1663ffffffff1610610a30576040517f08c379a0000000000000000000000000000000000000000000000000000000008152600401610a27906112f8565b60405180910390fd5b6000801b600260003373ffffffffffffffffffffffffffffffffffffffff1673ffffffffffffffffffffffffffffffffffffffff168152602001908152602001600020541415610abf576004600001600481819054906101000a900463ffffffff1680929190610a9f90611564565b91906101000a81548163ffffffff021916908363ffffffff160217905550505b80600260003373ffffffffffffffffffffffffffffffffffffffff1673ffffffffffffffffffffffffffffffffffffffff168152602001908152602001600020819055507f8033de21ae72f21fa8773c90e60e7a5188cb8e44b97f487a5c362a491882ae3433604051610b329190611255565b60405180910390a150565b6000838383604051602001610b54939291906113d3565b6040516020818303038152906040528051906020012090509392505050565b60008054906101000a900473ffffffffffffffffffffffffffffffffffffffff1681565b60055481565b600460000160009054906101000a900463ffffffff1663ffffffff16600460000160049054906101000a900463ffffffff1663ffffffff1614610c15576040517f08c379a0000000000000000000000000000000000000000000000000000000008152600401610c0c90611358565b60405180910390fd5b6000801b600260003373ffffffffffffffffffffffffffffffffffffffff1673ffffffffffffffffffffffffffffffffffffffff168152602001908152602001600020541415610c9a576040517f08c379a0000000000000000000000000000000000000000000000000000000008152600401610c9190611378565b60405180910390fd5b60001515600360003373ffffffffffffffffffffffffffffffffffffffff1673ffffffffffffffffffffffffffffffffffffffff16815260200190815260200160002060009054906101000a900460ff16151514610d2d576040517f08c379a0000000000000000000000000000000000000000000000000000000008152600401610d2490611338565b60405180910390fd5b6000600260003373ffffffffffffffffffffffffffffffffffffffff1673ffffffffffffffffffffffffffffffffffffffff16815260200190815260200160002054905060008060001b9050838334604051602001610d8e939291906113d3565b604051602081830303815290604052805190602001209050808214610de8576040517f08c379a0000000000000000000000000000000000000000000000000000000008152600401610ddf90611318565b60405180910390fd5b6001600360003373ffffffffffffffffffffffffffffffffffffffff1673ffffffffffffffffffffffffffffffffffffffff16815260200190815260200160002060006101000a81548160ff0219169083151502179055506004600001600881819054906101000a900463ffffffff1680929190610e6590611564565b91906101000a81548163ffffffff021916908363ffffffff16021790555050610e8c61101a565b838160200190151590811515815250503481600001818152505080600760003373ffffffffffffffffffffffffffffffffffffffff1673ffffffffffffffffffffffffffffffffffffffff1681526020019081526020016000206000820151816000015560208201518160010160006101000a81548160ff0219169083151502179055509050506008339080600181540180825580915050600190039060005260206000200160009091909190916101000a81548173ffffffffffffffffffffffffffffffffffffffff021916908373ffffffffffffffffffffffffffffffffffffffff1602179055508315610f995760066000815480929190610f8f9061151b565b9190505550610fb2565b60056000815480929190610fac9061151b565b91905055505b7f71259ee777d4ad2ca5adf062fff9cf0b1a14a6f834e8e8011fc946715720006f333486604051610fe5939291906112a6565b60405180910390a15050505050565b600160009054906101000a900473ffffffffffffffffffffffffffffffffffffffff1681565b6040518060400160405280600081526020016000151581525090565b6000813590506110458161179a565b92915050565b60008135905061105a816117b1565b92915050565b60008135905061106f816117c8565b92915050565b60006020828403121561108757600080fd5b60006110958482850161104b565b91505092915050565b600080604083850312156110b157600080fd5b60006110bf85828601611060565b92505060206110d085828601611036565b9150509250929050565b6000806000606084860312156110ef57600080fd5b60006110fd86828701611060565b935050602061110e86828701611036565b925050604061111f86828701611060565b9150509250925092565b611132816114e5565b82525050565b61114181611483565b82525050565b61115081611471565b82525050565b61115f81611495565b82525050565b61116e816114a1565b82525050565b6000611181602f8361140a565b915061118c826115c0565b604082019050919050565b60006111a460338361140a565b91506111af8261160f565b604082019050919050565b60006111c7602a8361140a565b91506111d28261165e565b604082019050919050565b60006111ea60368361140a565b91506111f5826116ad565b604082019050919050565b600061120d60238361140a565b9150611218826116fc565b604082019050919050565b6000611230603c8361140a565b915061123b8261174b565b604082019050919050565b61124f816114cb565b82525050565b600060208201905061126a6000830184611147565b92915050565b60006020820190506112856000830184611129565b92915050565b60006020820190506112a06000830184611138565b92915050565b60006060820190506112bb6000830186611147565b6112c86020830185611246565b6112d56040830184611156565b949350505050565b60006020820190506112f26000830184611165565b92915050565b6000602082019050818103600083015261131181611174565b9050919050565b6000602082019050818103600083015261133181611197565b9050919050565b60006020820190508181036000830152611351816111ba565b9050919050565b60006020820190508181036000830152611371816111dd565b9050919050565b6000602082019050818103600083015261139181611200565b9050919050565b600060208201905081810360008301526113b181611223565b9050919050565b60006020820190506113cd6000830184611246565b92915050565b60006060820190506113e86000830186611246565b6113f56020830185611156565b6114026040830184611246565b949350505050565b600082825260208201905092915050565b6000611426826114cb565b9150611431836114cb565b9250827fffffffffffffffffffffffffffffffffffffffffffffffffffffffffffffffff0382111561146657611465611591565b5b828201905092915050565b600061147c826114ab565b9050919050565b600061148e826114ab565b9050919050565b60008115159050919050565b6000819050919050565b600073ffffffffffffffffffffffffffffffffffffffff82169050919050565b6000819050919050565b600063ffffffff82169050919050565b60006114f0826114f7565b9050919050565b600061150282611509565b9050919050565b6000611514826114ab565b9050919050565b6000611526826114cb565b91507fffffffffffffffffffffffffffffffffffffffffffffffffffffffffffffffff82141561155957611558611591565b5b600182019050919050565b600061156f826114d5565b915063ffffffff82141561158657611585611591565b5b600182019050919050565b7f4e487b7100000000000000000000000000000000000000000000000000000000600052601160045260246000fd5b7f43616e6e6f7420766f7465206e6f772c20766f74696e672071756f72756d206860008201527f6173206265656e20726561636865640000000000000000000000000000000000602082015250565b7f53656e7420656e76656c6f706520646f6573206e6f7420636f72726573706f6e60008201527f6420746f20746865206f6e652063617374656400000000000000000000000000602082015250565b7f5468652073656e6465722068617320616c7265616479206f70656e656420686960008201527f7320656e76656c6f706500000000000000000000000000000000000000000000602082015250565b7f43616e6e6f74206f70656e20616e20656e76656c6f70652c20766f74696e672060008201527f71756f72756d206e6f7420726561636865642079657400000000000000000000602082015250565b7f5468652073656e64657220686173206e6f742063617374656420616e7920766f60008201527f7465730000000000000000000000000000000000000000000000000000000000602082015250565b7f43616e6e6f7420636865636b207468652077696e6e65722c206e65656420746f60008201527f206f70656e20616c6c207468652073656e7420656e76656c6f70657300000000602082015250565b6117a381611495565b81146117ae57600080fd5b50565b6117ba816114a1565b81146117c557600080fd5b50565b6117d1816114cb565b81146117dc57600080fd5b5056fea2646970667358221220ccc5f0fe5daedee7ac20e3a167d41dc1d0148665db5ee12c1278a88ec60ece7164736f6c63430008010033",
  "immutableReferences": {},
  "source": "// SPDX-License-Identifier: MIT\npragma solidity 0.8.1;\n\ncontract Mayor {\n    \n    // Structs, events, and modifiers\n    \n    // Store refund data\n    struct Refund {\n        uint soul;\n        bool doblon;\n    }\n    \n    // Data to manage the confirmation\n    struct Conditions {\n        uint32 quorum;\n        uint32 envelopes_casted;\n        uint32 envelopes_opened;\n    }\n    \n    event NewMayor(address _candidate);\n    event Sayonara(address _escrow);\n    event EnvelopeCast(address _voter);\n    event EnvelopeOpen(address _voter, uint _soul, bool _doblon);\n    \n    // Someone can vote as long as the quorum is not reached\n    modifier canVote() {\n        require(voting_condition.envelopes_casted < voting_condition.quorum, \"Cannot vote now, voting quorum has been reached\");\n        _;   \n    }\n    \n    // Envelopes can be opened only after receiving the quorum\n    modifier canOpen() {\n        require(voting_condition.envelopes_casted == voting_condition.quorum, \"Cannot open an envelope, voting quorum not reached yet\");\n        _;\n    }\n    \n    // The outcome of the confirmation can be computed as soon as all the casted envelopes have been opened\n    modifier canCheckOutcome() {\n        require(voting_condition.envelopes_opened == voting_condition.quorum, \"Cannot check the winner, need to open all the sent envelopes\");\n        _;\n    }\n    \n    // State attributes\n    \n    // Initialization variables\n    address payable public candidate;\n    address payable public escrow;\n    \n    // Voting phase variables\n    mapping(address => bytes32) envelopes;\n    //****************************************\n    // keeping track of who already opened his envelope\n    mapping(address => bool) opened_envelopes;\n\n    //yay/nay counters\n    //uint nayVote = 0;\n    //uint yayVote = 0;\n\n    //***********************************************\n\n    Conditions voting_condition;\n\n    uint public naySoul;\n    uint public yaySoul;\n\n    // Refund phase variables\n    mapping(address => Refund) souls;\n    address payable[] voters;\n\n    //***********************************************\n    // the public keyword has been removed from the constructor\n    // since it generates a warning message\n    //***********************************************\n\n    /// @notice The constructor only initializes internal variables\n    /// @param _candidate (address) The address of the mayor candidate\n    /// @param _escrow (address) The address of the escrow account\n    /// @param _quorum (address) The number of voters required to finalize the confirmation\n    constructor(address payable _candidate, address payable _escrow, uint32 _quorum) {\n        candidate = _candidate;\n        escrow = _escrow;\n        voting_condition = Conditions({quorum: _quorum, envelopes_casted: 0, envelopes_opened: 0});\n    }\n\n\n    /// @notice Store a received voting envelope\n    /// @param _envelope The envelope represented as the keccak256 hash of (sigil, doblon, soul) \n    function cast_envelope(bytes32 _envelope) canVote public {\n        \n        // 0x0 means that is the first envelope caste from this sender\n        if(envelopes[msg.sender] == 0x0) // => NEW, update on 17/05/2021\n            voting_condition.envelopes_casted++;\n\n        envelopes[msg.sender] = _envelope;\n        emit EnvelopeCast(msg.sender);\n    }\n    \n    \n    /// @notice Open an envelope and store the vote information\n    /// @param _sigil (uint) The secret sigil of a voter\n    /// @param _doblon (bool) The voting preference\n    /// @dev The soul is sent as crypto\n    /// @dev Need to recompute the hash to validate the envelope previously casted\n    function open_envelope(uint _sigil, bool _doblon) canOpen public payable {\n        \n        // TODO Complete this function\n\n            // emit EnvelopeOpen() event at the end\n\n        require(envelopes[msg.sender] != 0x0, \"The sender has not casted any votes\");\n        // ******************************************************\n        // check that the envelope has not opened yet\n        require(opened_envelopes[msg.sender] == false, \"The sender has already opened his envelope\");\n        // ****************************************************\n        \n        bytes32 _casted_envelope = envelopes[msg.sender];\n        bytes32 _sent_envelope = 0x0;\n        // ...\n        // ***************************************************\n        _sent_envelope = keccak256(abi.encode(_sigil, _doblon, msg.value));\n        // ***************************************************\n\n        require(_casted_envelope == _sent_envelope, \"Sent envelope does not correspond to the one casted\");\n\n        // ...\n        // ***************************************************\n        \n        // set the opened envelope to true\n        opened_envelopes[msg.sender] = true;\n        // increment # of envelopes opened\n        voting_condition.envelopes_opened++;\n\n        // instantiate a refund\n        Refund memory refund;\n        refund.doblon = _doblon;\n        refund.soul = msg.value;\n        // set the refund in souls\n        souls[msg.sender] = refund;\n        voters.push(payable(msg.sender));\n\n        // increment votes counters and souls counter\n        if (_doblon){\n            yaySoul ++;\n        }else{\n            naySoul ++;\n        }\n            \n        //emit event\n        emit EnvelopeOpen(msg.sender, msg.value, _doblon);\n\n        // ***************************************************\n    }\n    \n    \n    /// @notice Either confirm or kick out the candidate. Refund the electors who voted for the losing outcome\n    function mayor_or_sayonara() canCheckOutcome public {\n\n        // TODO Complete this function\n            \n            // emit the NewMayor() event if the candidate is confirmed as mayor\n            // emit the Sayonara() event if the candidate is NOT confirmed as mayor \n\n        // *****************************************************\n        if (yaySoul > naySoul) {\n            // CONFIRM CANDIDATE\n            //emit event\n            emit NewMayor(candidate);\n            //go through all the voters and refund ones who lose\n            uint n_voters = voters.length;\n            uint candidate_contribution = 0;\n            for (uint i=0; i<n_voters; i++){\n                //if doblon is False \n                if (!(souls[voters[i]].doblon)){\n                    voters[i].transfer(souls[voters[i]].soul);\n                }else{\n                    //sum all the souls provided\n                    candidate_contribution = candidate_contribution + souls[voters[i]].soul;\n                }\n            }            \n            //transfer money to candidate\n            candidate.transfer(candidate_contribution);\n        }else{\n            //KICK OFF CANDIDATE\n            //emit sayonara event\n            emit Sayonara(escrow);\n            //go through all the voters and refund ones who lose\n            uint n_voters = voters.length;\n            uint escrow_contribution = 0;\n            for (uint i=0; i<n_voters; i++){\n                //if doblon is True \n                if (souls[voters[i]].doblon){\n                    voters[i].transfer(souls[voters[i]].soul);\n                }else{\n                    escrow_contribution = escrow_contribution + souls[voters[i]].soul;\n                }\n            }\n            //transferm money to escrow\n            escrow.transfer(yaySoul);\n        }       \n\n        // *****************************************************       \n    }\n \n \n    /// @notice Compute a voting envelope\n    /// @param _sigil (uint) The secret sigil of a voter\n    /// @param _doblon (bool) The voting preference\n    /// @param _soul (uint) The soul associated to the vote\n    function compute_envelope(uint _sigil, bool _doblon, uint _soul) public pure returns(bytes32) {\n        return keccak256(abi.encode(_sigil, _doblon, _soul));\n    }\n    \n}",
  "sourcePath": "/mnt/c/Users/giaco/Documents/UNIPI/I ANNO/P2PSBC/finalterm/project/contracts/Mayor.sol",
  "compiler": {
    "name": "solc",
    "version": "0.8.1+commit.df193b15.Emscripten.clang"
  },
  "schemaVersion": "3.4.1",
  "updatedAt": "2021-05-19T17:09:06.036Z",
  "devdoc": {
    "kind": "dev",
    "methods": {
      "cast_envelope(bytes32)": {
        "params": {
          "_envelope": "The envelope represented as the keccak256 hash of (sigil, doblon, soul) "
        }
      },
      "compute_envelope(uint256,bool,uint256)": {
        "params": {
          "_doblon": "(bool) The voting preference",
          "_sigil": "(uint) The secret sigil of a voter",
          "_soul": "(uint) The soul associated to the vote"
        }
      },
      "constructor": {
        "params": {
          "_candidate": "(address) The address of the mayor candidate",
          "_escrow": "(address) The address of the escrow account",
          "_quorum": "(address) The number of voters required to finalize the confirmation"
        }
      },
      "open_envelope(uint256,bool)": {
        "details": "The soul is sent as cryptoNeed to recompute the hash to validate the envelope previously casted",
        "params": {
          "_doblon": "(bool) The voting preference",
          "_sigil": "(uint) The secret sigil of a voter"
        }
      }
    },
    "version": 1
  },
  "userdoc": {
    "kind": "user",
    "methods": {
      "cast_envelope(bytes32)": {
        "notice": "Store a received voting envelope"
      },
      "compute_envelope(uint256,bool,uint256)": {
        "notice": "Compute a voting envelope"
      },
      "constructor": {
        "notice": "The constructor only initializes internal variables"
      },
      "mayor_or_sayonara()": {
        "notice": "Either confirm or kick out the candidate. Refund the electors who voted for the losing outcome"
      },
      "open_envelope(uint256,bool)": {
        "notice": "Open an envelope and store the vote information"
      }
    },
    "version": 1
  }
}